:020000041000EA
:1000000000B5324B212058609868022188439860DF
:10001000D860186158612E4B002199600221596106
:100020000121F02299502B49196001219960352056
:1000300000F044F80222904214D00621196600F024
:1000400034F8196E01211966002018661A6600F04E
:100050002CF8196E196E196E052000F02FF8012189
:100060000842F9D1002199601B49196000215960AB
:100070001A491B48016001219960EB211966A021F2
:10008000196600F012F800219960164914480160C1
:100090000121996001BC002800D000471248134993
:1000A000086003C880F30888084703B5996A0420EC
:1000B0000142FBD001200142F8D103BD02B5186610
:1000C0001866FFF7F2FF186E186E02BD00000240BE
:1000D000000000180000070000035F00212200005C
:1000E000F4000018222000A00001001008ED00E03C
:1000F00000000000000000000000000074B24E7A12
:1001000000200420F7010010C3010010C5010010F9
:10011000C1010010C1010010C1010010C101001097
:10012000C1010010C1010010C1010010C701001081
:10013000C1010010C1010010C9010010CB01001065
:10014000CD010010CD010010CD010010CD01001037
:10015000CD010010CD010010CD010010CD01001027
:10016000CD010010CD010010CD010010CD01001017
:10017000CD010010CD010010CD010010CD01001007
:10018000CD010010CD010010CD010010CD010010F7
:10019000CD010010CD010010CD010010CD010010E7
:1001A000CD010010CD010010CD010010CD010010D7
:1001B000CD010010CD010010CD010010CD010010C7
:1001C00000BE00BE00BE00BE00BE00BEEFF3058054
:1001D000103800BEF2EB8871BC620010DC620010C7
:1001E0003402001090A31AE700201F49086006C8D7
:1001F00081F3088810471D48006800282FD10DA4FE
:100200000ECC002902D000F012F8F9E71849194A7B
:10021000002000E001C19142FCD1174988471749ED
:1002200088471749884700BEFDE701C901C29A42C5
:10023000FBD37047DC620010C00000206017002074
:100240007C79001000000420000004207C7900105C
:10025000001004200010042000000000704709482E
:1002600002F0AEF80047000008ED00E0000000D00A
:100270006017002024250020D521001071030010F4
:10028000012300105756000006005250ABB36053D4
:10029000A060001006005250861C0302B0600010DF
:1002A000060052505422A29DB86000100500525022
:1002B000DE65F4687C790010F8B5C046054B064849
:1002C000033310B51B1A062B03D9044B002B00D0A7
:1002D000984710BD60170020601700200000000044
:1002E0000648074910B5091A8910CB0F591849104B
:1002F00003D0044B002B00D0984710BD601700209E
:10030000601700200000000010B5074C2378002B78
:1003100009D1FFF7D3FF054B002B02D0044800E0C2
:1003200000BF0123237010BD6818002000000000EA
:10033000C85F0010094B10B5002B03D008490948CD
:1003400000E000BF08480368002B02D1FFF7C8FF98
:1003500010BD064B002BF9D09847F7E700000000CE
:100360006C180020C85F001060170020000000001B
:10037000F8B5D025802402F0FFFA192000F01AF811
:100380002D06A404084F094E6C62094800F05CFF7A
:100390006C61380002F00EFA054800F055FFAC61C0
:1003A000300002F007FAF0E7C85F0010D05F0010DD
:1003B000DC0500000123D022834012069362936182
:1003C000094A83009446402263441968C0004A40A9
:1003D000C02111408022520113431960034B9C46F7
:1003E000052360444360704704C001400040014061
:1003F000024B18688007C00F7047C04600C0064017
:10040000F8B5EFF3108772B60D4E3368002BFCD0B1
:10041000BFF35F8F0725CB08C01801230D40AB4009
:100420001D000478254007D123430370BFF35F8F7D
:10043000356087F31088F8BD100001F065FFC046F5
:100440002C0100D0F8B5CE4647468C4680B5EFF378
:10045000108872B61D4D2C68002CFCD0BFF35F8F46
:100460009A4219D80721012511408D40D40804195A
:10047000267835421FD007218946063909E04D46C6
:100480000F001540AF40D408041926783D003742CC
:1004900011D001329342F2D201204042BFF35F8F6C
:1004A00000220A4B1A6088F31088002807DB0CBC76
:1004B00090469946F8BD354325701000EEE7634637
:1004C000002BF4D0089801F01FFFC0462C0100D08B
:1004D0000021044B044ABFF35F8F02C39342FAD159
:1004E0007047C046000100D0800100D0044A107857
:1004F000431CDBB2172B00D9102313707047C04682
:10050000280E002000B5054B83B00100009318228F
:100510001F230348FFF796FF03B000BDDC5F001008
:10052000541D002001238340002902D1034A136097
:100530007047034A1360034A1360F9E780E100E063
:1005400080E200E000E100E001238340014A136003
:100550007047C04600E200E0084B10309B68800006
:10056000C358002B07D0064A00209B1A2F229A421C
:100570004041C0B270470020FCE7C04600ED00E0FB
:100580002C0E0020024B10309B688000C058704732
:1005900000ED00E070B50D00EFF3108672B60F4A63
:1005A0001368002BFCD0BFF35F8F0D4B10309B689E
:1005B00084001B590B4A934203D09D4201D001F0A5
:1005C000BBFE074B9B681D51BFF35F8FBFF35F8F6F
:1005D0000022024B1A6086F3108870BD240100D0FF
:1005E00000ED00E0CD010010F0B557464546DE466F
:1005F0004E46E0B5804683B08A461700EFF3108977
:1006000072B6604A1368002BFCD0BFF35F8F5E4B5D
:100610009B461B785BB20193002B00DAAAE09C4654
:100620005A465C00594D6444A4002E19B3791370E6
:10063000574B9A68434610339B00D15898464B1B42
:100640002F2B2DD9534B994201D001F075FE524BFF
:1006500002343380514B2D19043B5D1B2D05504B4B
:100660006D0D1D434F4B0121B380FF23B3715346E2
:100670007580F771B36031434246454B9B68995092
:10068000BFF35F8FBFF35F8F00223E4B1A6089F389
:10069000108803B03CBC90469946A246AB46F0BDDC
:1006A00001230A009A43D3799446BB423DD90620E0
:1006B0001056002805DA20E0062018561A000028F7
:1006C0001BDB43001B189B00EB18D879B842F3D80A
:1006D000002A2AD006201056131D9C4600280EDB47
:1006E00004342D19E024938824025B051B15634410
:1006F0005B1B1B055B0D234302E0131D9C462A4B2D
:100700006546341F641B2405254D640D2C439480DD
:100710006C4624799471B3805346244AB071328078
:10072000813A7280F771B360A6E7214A63465B1B8A
:100730005B415A43120D184BA11C3380174B6918AB
:10074000043B5B1A1B0516495B0D0B437380634624
:100750000434043B2D195D1B2D0553466D0D2943B3
:10076000B180B27101216246B360124BF77131431F
:10077000136081E701F0E0FD5B461B785BB20193FB
:100780004DE7C046240100D0592200202C0E002045
:1007900000ED00E0CD01001000A1FFFF5C0E002085
:1007A00000E0FFFF01BDFFFF01BD000001480000A8
:1007B000AAAA000001488047F0B5DE4657464E46DB
:1007C0004546E0B50C0083B0EFF3108A72B6584A84
:1007D0001368002BFCD0BFF35F8F0200554B103223
:1007E0009B6891005E58544B884699469E425CD067
:1007F000A64200D172E0514D731B2F2B55D8012713
:1008000087404F4B1B683B4001934E4B1F60BFF32B
:100810005F8FEFF305839B46002B03D09A4201D0F4
:1008200001F08AFD012332009A4393689C4200D173
:100830006BE006215156002905DA31E006215956B0
:100840001A0000292CDB4B005B189B00EB18996801
:100850008C42F3D106215956002941DB4A00501839
:1008600080002C188146A0689860E079D871062035
:1008700020569871A0797F2845D8A488E81A640585
:1008800024154C440019E0240005400D24022043A7
:10089000988052182C4B9200AD181A781970AA71D2
:1008A000019B002B15D1274B1F604246214B9B68B3
:1008B0009E50BFF35F8FBFF35F8F00221C4B1A6007
:1008C0008AF3108803B03CBC90469946A246AB46DA
:1008D000F0BD1E4B1F601A4B1F60E6E71E00E4E7E9
:1008E0005946002914D1002A1FD0FF3191711849AF
:1008F000918015490A789A71164A5B1B5B415A43ED
:10090000120D0A70CCE71448C2E713000022A1E7D9
:10091000124A1349D21A083A5002400D01439980F5
:10092000104952080A43DA80BAE74E46E1E7C0466A
:10093000240100D000ED00E0CD0100102C0E0020BD
:1009400000E100E080E100E05922002080E200E0C8
:1009500001BDFFFFAAAA000001BD0000660E002035
:1009600000F0FFFF00F8FFFFF0B5EFF30581012471
:100970000443EFF3108672B6214A1368002BFCD0B3
:10098000BFF35F8F1F4A204B0500AD1A6D416B43CB
:100990001B0D1E4D8900AF685BB27F58BC4226D04C
:1009A00006215156994226D012215156994224D0FF
:1009B0001E215156994210D02A21515603249942A2
:1009C0000CD0134A117813708171BFF35F8F00222E
:1009D0000B4B1A6086F31088F0BD022461000919E0
:1009E00089005218FF2191710A499180E9E7AA68AC
:1009F000094C5450E5E70024F0E70124EEE7C04637
:100A0000240100D02C0E0020AAAA000000ED00E076
:100A10005922002001BDFFFFCD010010084B094AFB
:100A20001360094A1360094A1360094A1360094AAE
:100A30001360094A1360094A1360094A136070473A
:100A40008080808000E400E004E400E008E400E04E
:100A50000CE400E010E400E014E400E018E400E03E
:100A60001CE400E000B5074B83B0010000930022B6
:100A700005230548FFF7E6FC002801DB1F23181AB1
:100A800003B000BDF85F00105E220020024B9C46C0
:100A900061448900016070474000003410B50400D3
:100AA000FFF724FD01002000FFF7F0FFFF23237173
:100AB000BFF35F8F10BDC04610B50400FFF716FDF1
:100AC00001002000FFF7E2FFFF2323710023637181
:100AD000BFF35F8F10BDC04610B504000120FFF7C3
:100AE00011FD044B9C46604480002060BFF35F8F83
:100AF00010BDC04640000034034B9C466144890051
:100B00000160BFF35F8F70474000003483680B487B
:100B100010B5844661446244090112019A185918BB
:100B200054684B6801209C4201D802D00020C0B21A
:100B300010BD12680B689A42F9D8F7E7FFFFFF0F64
:100B40000A4B1968EFF3108072B60A68002AFCD0CD
:100B5000BFF35F8F1B68BFF35F8F00221A6080F3C3
:100B6000108840BF002000217047C0462822002086
:100B7000F8B54E464546DE465746E0B51F000CAB7D
:100B80001D780DAB1B7881469B460368160098467E
:100B9000002D08D1987B002841D13CBC9046994655
:100BA000A246AB46F8BD28006C006419033C384BE4
:100BB00000229C464B469B6860449C4600010A9B71
:100BC000604483600B9B06604760C36043461B68BC
:100BD0001B199A705A701A7043465B7B9A46002B19
:100BE0003BD043462A00986851465B689847434685
:100BF0001A68002824D053465B005344033BD318A3
:100C000014195246A2701A78002A00D062701D7022
:100C10005246434628005A73AA45BED11FE04146BA
:100C200044001B682418033C1B195A788A73002A55
:100C300000D1CA73002205009A705A701A70B6E784
:100C400053465B005344033BD31814199D7022781C
:100C5000002A00D05A705346237043465D734B46BA
:100C60003200187D3B0000F0EFFC041E07D05B460D
:100C7000002B04D14B462900186800F001FF0E9BA1
:100C8000002B02D01C70280087E7280085E7C046AB
:100C9000FFFFFF0FF0B5DE46454657464E466A4B0E
:100CA0008200E0B5D55800239B468BB0099000F038
:100CB0003FFC6A68EFF3108472B61368002BFCD017
:100CC000BFF35F8F2B689C465B7B9946002B00D15E
:100CD0007EE0AA685D4B90464B441B019844434616
:100CE0001E685F6832003B00121A8B41002B00DC4B
:100CF00082E032003B00099800F0A6FC00230022AD
:100D0000984600230692079300239A466B68BFF328
:100D10005F8F5A461A6084F310885346002B61D0C7
:100D2000089B414618024B461843D0476A680600A4
:100D30000F00EFF3108472B61368002BFCD0BFF3E2
:100D40005F8F002F22DA2B69002B25D0069A079B94
:100D5000921BBB41002B02DA01223D4B5242594605
:100D60000491012103914946029141460191514666
:100D700028000091FFF7FCFE5B462B616B68BFF318
:100D80005F8F5A461A6084F3108890E733003B4324
:100D900002D02B69002B4DD12B68DA7B002A07D0BB
:100DA00051008A1819688C4649466244033A5170CA
:100DB0009A7B002A01D14A469A734A46DA73EA6856
:100DC0004B469446013B63441A7801321A70D3E7CC
:100DD0000023002298460023069207930023002058
:100DE0009A4693E7002800D061E70BB03CBC9046E0
:100DF0009946A246AB46F0BD002B02D1002A00D096
:100E000077E70021604600F091FD43461A685B6871
:100E10000692079343469B689A464346DB6898468A
:100E2000EB684B44013B1B7808931B021843286175
:100E300000206BE700F07CFB32003B0012184B41B6
:100E4000002B00DA88E78AE70C220020FFFFFF0F63
:100E5000FFFFFF7F10B5144C6368002B04D00A21FC
:100E60001248FFF713FE10BD2300114A102120681D
:100E700000F03EFD032000F04FFB032000F052FC89
:100E80000C49032000F09AFBFFF730FB0A4B9C460D
:100E900003232375D0231B061B6860446375074B2F
:100EA00080006060DC60DAE7740E002028220020F9
:100EB0000D0B0010950C0010400000340C22002097
:100EC00000487047740E0020F0B55746DE46454690
:100ED0004E46E0B585B00092019310AB1B78070039
:100EE0009B4600239A4698467A68EFF3108972B6BB
:100EF0001368002BFCD0BFF35F8F3E68B47B002CDF
:100F000000D173E065002D193368033D5B195A78F1
:100F1000B273002A00D1F27342469A705A701A7066
:100F2000BA684C4B94460099019AE3181B0163443C
:100F300019605A600E9A9A600F9ADA6042463368D6
:100F40005B199A705A701A70737B0393002B00D14F
:100F50006EE0190073682200B0689C46E047326872
:100F6000002856D003985519844643006344033B38
:100F7000D318A8701A78002A00D067E01C7070732C
:100F8000844256D0FB681B19013B18787B68BFF37D
:100F90005F8F42461A6089F310885346002B08D1B0
:100FA0000002204305B03CBC90469946A246AB46A1
:100FB000F0BD5B46002B4BD00E9B0F99002098474D
:100FC000030004000D000B4342D0002917DA009AF9
:100FD000019B121BAB4100920193002B04DA012309
:100FE0001D4C5B4200930194DA467DE77B68BFF3BA
:100FF0005F8F1C6089F3108801204042D2E700F027
:1010000097FA24184D4100940195002DE7DBDA464C
:101010006AE7039955198C464B006344033BD31888
:101020009C702A78002A00D05A706B461B7B2B706C
:101030007473387D009A019B00F006FB82460028FD
:10104000A0D02100386800F01BFD9BE76A7095E78F
:101050000020A7E7FFFFFF0FFFFFFF7F407D7047E6
:10106000F0B557464E464546DE460400E0B50D0055
:1010700006267642F71736196F4185B08F4255D84C
:1010800052D000F055FA32003B00121A8B41002B6F
:1010900056DD684B9A465A68EFF3108B72B61368A8
:1010A000002BFCD0BFF35F8F53461B6899469B7B98
:1010B0009846002B4AD153465B68BFF35F8F0022EE
:1010C0001A608BF310884346002B11D0BC46B04603
:1010D0000094019500266546574F584A7B6AAB42FB
:1010E00011D3B96A414501D2AB420CD0009C019D9D
:1010F0002000290000F052FA05B03CBC9046994609
:10110000A246AB46F0BD1168EFF3108072B60B68D3
:10111000002BFCD0BFF35F8F1368BFF35F8F1E609F
:1011200080F3108820BFD9E78642AAD9002600277D
:1011300000F0FEF932003B00121A8B41002BA8DCB4
:10114000002BD5D1002A00D0A3E7D1E75B004344B0
:101150004A46033B9C4649461268009362445378D2
:101160008B73002B00D1CB730023514693705370C7
:1011700013708968324A8C464244324912016244F3
:10118000166057609160D36000994A468C46126899
:1011900062449370537013704B465B7B0393002B38
:1011A00035D0190048464B46424680685B689847F0
:1011B000002819D00398009984464A4643006344A6
:1011C0008C4669461268097B033BD31862449170D0
:1011D0001978002900D0517042461A704B46587356
:1011E000804500D067E715E04B4603981A688446AF
:1011F000009BD11843006344033BD31842469A70C6
:101200000A78002A00D05A706B461B7B0B704B4645
:1012100042465A7353463200187D3B0000F014FAE0
:10122000002800D147E753464146186800F028FCE3
:1012300041E7C046740E00200040054028220020EF
:10124000FFFFFF0F410B001070B5060000F070F9B2
:10125000FA2204000D00920000233000002101F06A
:101260004DF900196941002902DA01200249404282
:10127000FFF7F6FE70BDC046FFFFFF7FF0B5EFF34E
:1012800005835746DE464E464546E0B50C0083B022
:101290000700002B17D00021724A8846536A9C42EF
:1012A00009D80121926A8846BA4204D2E41A631E20
:1012B0009C41E3B29846404603B03CBC90469946F8
:1012C000A246AB46F0BD684D6A68EFF3108A72B66D
:1012D0001368002BFCD0BFF35F8F2B689E7B984672
:1012E000002E3FD10023984601936A68BFF35F8FB9
:1012F000002111608AF31088002E00D17DE0424663
:10130000002A00D079E0019A1B02134320BF6968CC
:10131000EFF3108972B60A68002AFCD0BFF35F8F22
:101320002868D9B2427B8A426FD0FF221A40560009
:10133000B24606689244B44656466644033EB678C2
:10134000002E64D12A69934200D188E06B68BFF314
:101350005F8F00221A6089F31088424A536A9C42C8
:10136000A9D89EE773009B19033B99464346414623
:101370001B6801964B445A788A73002A00D1CA73BD
:1013800000229A705A701A70A968384B8C46F3186C
:101390001B01374963441F60DA605C609960434613
:1013A0001B684B449A705A701A7043465B7B9B468D
:1013B000002B45D019004346320098685B68984777
:1013C00043461A6800282DD05B4659465B005B44B3
:1013D000033BD3184A4491701978002900D051700A
:1013E0001E705A4643465A735E452BD000239846DA
:1013F000EB689B19013B1B7877E71A4A536A9C42BA
:1014000000D84EE70023984655E7FF221A40EE68C1
:101410001B0AB4466244013A12789A4296D100F00F
:101420002FFB93E74B46D1185B465B005B44033BC5
:10143000D3189E700A78002A00D05A705B460B7051
:1014400043465E73287D3A00230000F0FDF8804695
:101450000028CBD03100286800F012FBC8E72E61CD
:1014600074E7C04600400540740E0020FFFFFF0FE8
:10147000410B0010F8B5EFF30583CE464746180040
:1014800080B51038EFF3108C72B61C490A68002A38
:10149000FCD0BFF35F8F0124220082401849194E0F
:1014A00072630A6018490D7889462900C140884650
:1014B000474600213C420BD0746A144EA04684007B
:1014C000A659B04512D3124B9543E1584B461D70B7
:1014D000BFF35F8F0022094B1A608CF3108800293C
:1014E00000D088470CBC90469946F8BD094A9B003D
:1014F000904643441A681A60EAE7C046280100D0C3
:101500003C700540004005405D2200203422002050
:101510003C1C0020D03F054010B50100024A0348A2
:10152000FEF76EFF10BDC04620600010582200205C
:10153000044A516A00E01900906A536A9942FAD14C
:101540007047C04600400540134A30B5546A00E079
:101550001C00956A536AA342FAD12A00230080181E
:1015600059418C4211D80ED00C000B4A536AA34249
:10157000FCD307D1084A02E0516A994202D1916A2C
:101580008142F9D330BD8542EED901240120404289
:10159000C1176442E9E7C04600400540064A536A65
:1015A0009942FCD807D1044B02E05A6A914202D119
:1015B0009A6A8242F9D370470040054070B5040032
:1015C0000D00EFF3108672B61A4A1368002BFCD098
:1015D000BFF35F8F002D1BD02000FEF7D3FF16490D
:1015E00088420AD02000FEF7D5FF01212000FEF737
:1015F00099FF0123A340114A1360114BA400E55049
:10160000BFF35F8F00220B4B1A6086F3108870BD0A
:101610000B4BA200D5500122A2400A4920000B78B2
:1016200093430B700449FFF7C7F800212000FEF731
:1016300079FFE5E7280100D07514001038600540F7
:101640003C1C00205D220020F0B5D6464F464646A1
:101650002F4CC0B5656A00E00D00A66A616AA94218
:10166000FAD1AB4249D9EFF3108972B6294C2168FF
:101670000029FCD0BFF35F8F0126274986408C46A6
:101680000978264D0F0037438846F9B28A466146ED
:1016900054460C701E49041DA4004E636250840021
:1016A00063510D6A002435421AD04D6A00E02500CE
:1016B0008F6A4C6AAC42FAD1AB4224D801D1BA420B
:1016C00021D8D04521D0124B154A1E625E631F23DC
:1016D00018401E3B834013606346424601241A7043
:1016E000BFF35F8F00220B4B1A6089F31088200034
:1016F0001CBC90469946A246F0BDAB4201D1B24215
:10170000B1D80124F3E70024EAE70124E8E7C04662
:1017100000400540280100D05D2200203422002036
:1017200080E200E010B5EFF3108472B60A490B684E
:10173000002BFCD0BFF35F8F01238340074A08488A
:10174000136202789A430270BFF35F8F00230B602D
:1017500084F3108810BDC046280100D00040054029
:101760005D220020F8B54E464546DE465746E0B5B8
:101770004C0064180368033C1A190D0051780600E8
:101780008946002906D128003CBC90469946A246CD
:10179000AB46F8BD4F004F44033FD8194178884607
:1017A000002141705170002D12D073684A46290003
:1017B000B06898473368002873D0DF191A19BD70D4
:1017C0001178002900D0797049462700117000E097
:1017D0004D464246002AD6D054004444033C1A19D0
:1017E00051788946002911D1736842462900B068B2
:1017F00098473368002849D01C19DF19A5703B7839
:10180000002B00D0637043463B70BCE7490049445D
:1018100003398A46534459788B46002159705170D8
:1018200073684A464146B06898473368002843D1F8
:1018300052461C199A184B46A3701378002B00D0FF
:10184000637043465446C84613705B46002BCBD0AA
:1018500059463000FFF786FF81460028C4D00200B9
:101860004146B06873689847326800282FD04B46CD
:101870005B004B44033B1119D31842469A700A7817
:10188000002A00D05A704B460B70ADE71C19DF19C7
:101890004346BB702378002B00D07B7025704546F3
:1018A00071E749461C19DA19A1701178002900D096
:1018B000617015704D468CE741461A195344997072
:1018C0001178002900D059704B461370BDE74B4684
:1018D0005B004B44033BD11814194A46A2700A78A6
:1018E000002A00D0627042461C000A70C8467BE79E
:1018F00010B583600023CCB243730133047342609C
:101900008373C4730068012C07D90123421C01337F
:10191000DBB2137003329C42F9D8FF2319404B000D
:101920005918002340180338437010BDF0B54E46D7
:1019300057464546DE46E0B5477B03687D00ED1916
:10194000033D5A19167883B004008946002E22D12F
:10195000002915D0E07B002804D04100091859184F
:1019600003394F70A17B002900D1A773E773002EC4
:1019700006D07100891903398846002143449970C3
:10198000002338005370667303B03CBC9046994600
:10199000A246AB46F0BD7100891903398846591833
:1019A00048788246002803D149460029E5D0D1E78E
:1019B00042005244033A9446019263445A78934653
:1019C00000225A704A70636852463100A0689847F6
:1019D0002368002845D0414601985A1819188E707E
:1019E0001078002823D1514611705A46002A21D080
:1019F00059462000FFF7B6FE8246002819D00200A3
:101A000063683100A06898472368002814D04246D4
:101A10009918524652005244033A9A189670087820
:101A2000002800D0507052460A705A19BCE748701E
:101A3000D9E723685A19B7E7524651005144033990
:101A40005A18404693465246181882705A461278E1
:101A5000002A00D042705A46884616705A195646D7
:101A6000A2E741465046019A59189A188870107892
:101A7000002800D048701670019A56469046B4E788
:101A8000F0B54546DE4657464E46E0B50C0005002B
:101A900083B00020002940D06B7B9846994200D14A
:101AA000B4E04E0076182A68033E91198F78002F13
:101AB00033D07B00DB19033BD3181878844202D162
:101AC000A1E0002808D043001B18033BD318587826
:101AD0008442F6D14878587000230F789C468B706A
:101AE0004B70002F41D1E87B002804D043001B1825
:101AF000D318033B5C70AB7B002B15D0EC73002F2D
:101B000016D000237C00E419033C121993704B702B
:101B10004346002B11D101206F7303B03CBC9046AB
:101B20009946A246AB46F0BDAC73EC73002FE8D1EA
:101B30004F70474601206F73EFE73A004146A868AF
:101B40006B6898472A68002800D185E043465B000F
:101B50004344033BD31814194246A2701A78002A52
:101B600000D062701F704746D5E77800C01903386F
:101B70008146101843789A46002BB4D0590051443E
:101B8000CB1E98464244537839009B4663465370B7
:101B900043705246A8686B6898472A68002800D1AD
:101BA000C4E041464B465118D3188F70187800286E
:101BB00000D048705146C84619705B46002B1ED0B5
:101BC00059462800FFF7CEFD8146002800D195E058
:101BD00002003900A8686B6898472A68002800D17D
:101BE00091E04346D1184B465B004B44033BD3186E
:101BF0009F700878002800D058704B460B706B7BA4
:101C0000911998466FE74878187065E74246560084
:101C10002B684644033E99190C78002C2AD1E87BA6
:101C2000002805D04200121840469A18033A507016
:101C3000AA7B002A01D14246AA734246EA73002CCD
:101C400005D0620012199B180022033B9A700023F2
:101C500001204B706C7360E743465B004344033BD9
:101C6000D31814199F702278002A00D05A70434666
:101C7000237050E767003F19FA1E01929A185778AF
:101C8000BA46002FCBD079005144033989464B44E2
:101C90005978587050706B688B463A002100A868DC
:101CA00098472B68002860D04946019F5918DA19D7
:101CB0008C701078002865D15146B94611705A468B
:101CC000002A19D059462800FFF74CFD071E3AD0CC
:101CD00002006B682100A86898472B68002835D05F
:101CE0004A4699187A00D219033A9A1894700878DB
:101CF000002800D050700F70991990E76B7B2A680C
:101D000098469119EFE64B465900434648464944E8
:101D10000339D318511898700878002800D05870EB
:101D20000F706B7B911998464F46DCE64346D118FD
:101D30004B465046D31898700878002800D0587049
:101D40000F70574639E72B68991968E74A467900BA
:101D5000C91903399A18591897700878002800D0C3
:101D600050700C7099193C0059E701994A465F1868
:101D700051469A18B9701178002900D07970147002
:101D800054469CE7487051461170019A914696E777
:101D900030B50C2083B000F0B7F9FEF729FB00281E
:101DA0000ED09B4B9B4A1A605A609A60DA601A61A7
:101DB0005A619A61DA611A62974A5A6203B030BD79
:101DC000964CA06700F0F2F90122954B1A60636C03
:101DD000012BFCD10322934B1A60904A936B012B89
:101DE000FCD101330093904A043301218F4800F065
:101DF0003DF905238E4A009301218E4800F036F903
:101E00008D4B5A68FF2A02D8802252005A608022E5
:101E10007F4C844B21691201874D1A60002900D044
:101E2000EDE0E021844B02201A681140802252012B
:101E30002A431160196848400321014011600421C0
:101E40009A681142FCD08022802192012A43090124
:101E50001160802252005A60784B2361784B596898
:101E6000FF2900D8C9E003226D4B75481A60012193
:101E700003009A681142FCD0E0251A6815408022C0
:101E80005201024315601B684B4003211940116049
:101E900002216B4A93681942FCD0802380219B0168
:101EA0000343090119608021664B49005160636159
:101EB000654B5A68FF2A00D859608022634BE1695C
:101EC0001201614D1A60002907D0606900F0AAFA7A
:101ED000431C5800C0180338FDD2E0225A490B6851
:101EE0001A4080235B012B431A60802380229B01D0
:101EF0002B4312011A608022464B52004A60E36174
:101F0000534B5968FF2900D85A608022514B216AEF
:101F100012014F4D1A60002907D0606900F082FA63
:101F2000431C5800C0180338FDD2E02248490B6812
:101F30001A4080235B012B431A60802380229B017F
:101F40002B4312011A6080235B004B60314B424AE5
:101F50002362424B5968914201D801325A60802273
:101F60003F4B616A12013D4D1A60002907D060693C
:101F700000F058FA431C5800C0180338FDD2E02284
:101F800036490B681A4080235B012B431A6080237B
:101F900080229B012B4312011A608023DB024B60DD
:101FA0001D4B63622F4B5A68FF2A02D880225200D1
:101FB0005A6080222C4BA16912012A4D1A60002917
:101FC00007D0606900F02EFA431C5800C01803388F
:101FD000FDD2E02223490B681A4080235B012B438A
:101FE0001A60802380229B012B4312011A608023F8
:101FF0005B004B60134BA361E0E65A6033E7606916
:1020000000F010FA431C5800C0180338FDD208E74E
:10201000581D0020006CDC021BB70000008000404F
:102020003CB0004030B00040002F685900800240B2
:10203000008C864700C0024030800040001BB70083
:102040003C800040405973075480004054B0004029
:102050006080004060B00040FFFF03006C800040E3
:102060006CB000404880004048B00040F8B5040023
:10207000204817001D000E0000F0D4F901003800C0
:1020800000F0D0F9069A2B04120313432268002AA9
:102090001CDB194A8021944229D04901174A184D66
:1020A0001160184A11600F00AA689743FBD1C02144
:1020B000221D8901114321222660A0600A60226846
:1020C000002AFCDAE36008230B60F8BD3F22216898
:1020D0000A409642DDD1A2681205120D9042D8D175
:1020E000EE21E268C9020A409342D2D1EDE78901AC
:1020F000D4E7C046001BB70000C0024000E000402B
:1021000000C0004000F0004080239B001843014BBA
:10211000D86270470080054010B580241A4BE40552
:102120001C6000281AD00123184C1843184BDC619E
:10213000184C44401C62596298628021124BC905B8
:102140001960154815490860E021C9041960002A82
:1021500007D18022124B12061A6010BD0C4BD861B9
:10216000EBE7FA23DB005A430E4B9A4208D80E4B9A
:102170001A60074B5A608022094BD2051A60ECE7BF
:10218000094A13601A00F4E700B00540D3C007B055
:10219000008005402D3FF84FFCFF01000820014062
:1021A00000A00540FFFFFF00FC210020AA23064AF3
:1021B0001B0113602F230549D360054B1960536839
:1021C000002BFCDA7047C0460040024000B0FA0025
:1021D000006002402D4A2E4B70B51A602D4A2E4BDE
:1021E0002E491A6010008B689843FBD12C4E2D4B62
:1021F0009E420AD2F5430024ED18AD080135A30034
:10220000F35801349847AC42F9D1FFF7C1FD264A93
:10221000214B1A60214A9368DB018033FBD14022B5
:10222000224B234C234D9A675A671A67DA66AC42F1
:1022300008D223682000002B22D00834FEF73CFC93
:10224000AC42F6D31C4D1D4CC022A168280000F002
:10225000C7F9A560FEF73CF9FEF7E0FBFEF7FAFDD3
:10226000174E184B9E420AD2F5430024ED18AD08D4
:102270000135A300F35801349847A542F9D170BD48
:102280000834FEF70BFCAC42D3D3DBE7BFCDFBFE3B
:1022900000E00040FE7F3C0000F0004000C0004035
:1022A0004817002058170020FFFFFF0100F00140F1
:1022B00040170020481700200000002000ED00E03B
:1022C000581700206017002000BEFDE7094A136878
:1022D000002B06D008491818884208D8106018004A
:1022E0007047064B0449181813608842F6D901203C
:1022F0004042F5E7F41D00200000042024250020C2
:1023000010B5FFF7E1FFC0460FB400B5084883B031
:1023100000F050FA049B002B07D005A9180001918A
:1023200000F02EF8034800F045FA0120FFF7CCFF3B
:10233000506000106060001010B50148FFF7E4FF26
:102340004460001010B5002800D110BD0B4B1C6874
:10235000A2689368013B9360002B04DB1368591C4F
:1023600011601870F1E791698B4201DB0A28F5D101
:102370000100200003F00AF8E7E7C046000F002044
:1023800010B5094A84B01468002C09D001220091CC
:102390000300524203A90548A047012004B010BD24
:1023A00000F008FA0020F9E7F8210020452300108A
:1023B00001480421014B1847A00E0020E123001022
:1023C000142310B50100188804331B88984710BDEA
:1023D000162310B50100188802331B88984710BDDA
:1023E000F8B54746CE4680B50F1E19D0142399463E
:1023F000043304000025012698464B4618884346BE
:1024000021681B88984701C4431E9841013540420A
:102410000640AF42F1D130000CBC90469946F8BD61
:102420000126F8E7114A936F9B0813D21066516694
:10243000002905D0FFE7FFE7FFE7516F106F7047F6
:1024400004B5002801D00020C04303F06DFD002139
:1024500004BDC046F0B5146E556E576F166FFFF78A
:10246000E5FF1466556657671667F0BD000000D09B
:10247000132370B51C78012C15D010DD0F48FFF721
:10248000A7FF0F4D01008022280000F0A9F8022CC0
:1024900006D00C48FFF794FF0B4B186070BD084D39
:1024A0000A4AAA64F5E7064D084A29002B00803144
:1024B00004C38B42FCD1AA64EBE7C046534400003E
:1024C000602200204C33000024220020D124001080
:1024D00007B5604601880A0A0230DF2AFAD1C9B27C
:1024E000820804D3028840880004104300E000689A
:1024F000014A5050039007BD6022002051434343DE
:10250000C9188C46110C83B24B4310B4040C6143C0
:1025100092B280B2504362431C041B0C001910BCE1
:1025200059411304120CC018514161447047000016
:10253000132310B51C781348FFF74AFF012C0BD06A
:1025400004DD01008022104800F04AF80F48FFF730
:1025500037FF0F4B186010BD0B4C010054222000B8
:1025600000F03EF80B4B6365A365E3652366636685
:10257000A366E36623676367A367E3672362E36198
:10258000E4E7C04653460000602300204C330000BF
:10259000242200209925001007B5604601880A0A08
:1025A0000230DF2AFAD1C9B2820804D302884088F7
:1025B0000004104300E00068014A5050039007BD3A
:1025C0006023002001480421014B1847B00E002071
:1025D000E1230010014B1B6818470000B00E0020DB
:1025E000014B5B6818470000B00E0020030010B5D7
:1025F00008001B681100984710BDC046F8B5474653
:10260000CE4680B5437D80460E001700002B48D093
:10261000002A2EDD274B012500240020994604E0E6
:102620002B00013401359F4219DD002C3ED0631E82
:10263000F35C0D3B59425941CBB2325D0A2AEFD1CE
:10264000002BEDD1844226DC434648461B6802211C
:102650009847013428002B0001359F42E5DCB84241
:102660000BDBF619013E33780D3B59425941434685
:1026700019750CBC90469946F8BD4346391A301876
:10268000F6191B68013E984733780D3B5942594172
:1026900043461975EDE74346211A1B6830189847E1
:1026A000D2E70368110030009847E2E743461B7DFC
:1026B000C3E7C046C4600010F0B5DE4657464E463C
:1026C0004546E0B583B017001C0006000D00FEF77C
:1026D0002FFF0023304A12184B41002B02DA01224F
:1026E0002E4B52422E490800884603F035FC8146A5
:1026F0006B1C30D0002C2BD12A4B9A462A4B1C68DD
:10270000002C15D0002F2BD1284F02E02469002C7B
:102710000ED02368002BF9D03B68002B01D0A342D8
:10272000F4D120002A003100D0472469002CF0D1D8
:102730004B46002B02D0404603F0EEFB681E85415D
:10274000E8B203B03CBC90469946A246AB46F0BD09
:10275000174B9A46D2E7300002F0E6FD0500C9E7C4
:10276000124B9B466B46DF1D02E02469002CDFD034
:102770002368002BF9D05B461B68002B01D0A342D5
:10278000F3D12A0031002000D0470A23012239006A
:1027900020003B70D047E8E740420F00FFFFFF7F7B
:1027A00040170020FD250010E81D0020F01D00202E
:1027B000ED25001070B5040002F0B6FD0023010005
:1027C000050001222000FFF777FF064B1C68002C54
:1027D00006D06368002B00D098472469002CF8D1FC
:1027E000280070BDE81D0020F0B54646DE4657467D
:1027F000C0B5904682B00E0000282CD11A4B1B4D5C
:102800001A685B681A4F9A461A4B01929B465B46C0
:102810001C68002C05D115E0A34205D02469002CCA
:1028200010D02B68002BF7D1A368002BF6D04146BF
:10283000300098470028F1DD02B01CBC90469A4653
:10284000A346F0BD7B6A9A4508D8BA6A01998A42C4
:1028500001D29A4502D001204042EDE7012000213B
:10286000FEF772FED3E7C04618600010F01D00208E
:1028700000400540E81D0020F0B54646D6464F46CC
:102880000138C0B515000E0001283ED8FEF750FEF5
:1028900000231F4A12184B41002B02DA01221D4B64
:1028A00052421D49A9460800884603F055FB82465E
:1028B0006B1C25D0194B1C68002C14D0184F02E05B
:1028C0002469002C0FD02368002BF9D03B68002B23
:1028D00001D09C42F4D120004A463100FFF78EFE21
:1028E0002469002CEFD15346002B05D128001CBCD5
:1028F00090469946A246F0BD404603F00DFBF5E731
:10290000300002F011FD8146D4E701256D42EDE76C
:1029100040420F00FFFFFF7F40170020E81D00200E
:10292000F01D0020012040427047C0460120404277
:102930007047C046012040427047C0460222002333
:1029400082425B41180070470A4A1368002B05D188
:102950000CE01A001B691032002B07D09842F8D106
:10296000002902D103691360016170470029FCD07E
:102970001060FAE7E81D002010B500F0D1F910BD95
:102980007047C0460022014B1A7070475A2200203F
:10299000012070474B790020FF2B00D070478B79C6
:1029A000002BFBD1CB79012BF8D1082AF6D98A78F4
:1029B000014B09301A70F1E75A22002070B501204E
:1029C000012900D070BD13495379107909781B0291
:1029D000034300209942F5D15378012B08D0022BF4
:1029E000F0D1002064220021FFF796FB0120E9E7E7
:1029F000D478917824020C430500E20502D5620ADE
:102A000093401D000448FFF7DBFC7F2103002140B9
:102A1000280098475A2200205542000001230370E5
:102A200000487047C86000104A780B7812021A43B9
:102A30008B7810B51B041A43CB781B0613439622E0
:102A4000D200934200D010BD0348FFF7B9FC00212B
:102A5000030008009847C04655420000024B18602A
:102A6000024B19607047C0464C1D0020501D0020CD
:102A700010B5024B1878FDF767FD10BD5B220020F2
:102A8000114B70B51A68002A1AD0EFF3108172B694
:102A900010680028FCD0BFF35F8F00220B485960FC
:102AA00002701B68BFF35F8F1A6081F310880024E7
:102AB0000025074B1878FDF747FD2900200070BD61
:102AC000FA240025A400F4E7042200205C22002060
:102AD0005B22002070B5050000200E0001F080FB95
:102AE000002834D0002001F093FB00282FD0FEF7FF
:102AF0001FFD0023174A12184B41002B02DA012256
:102B0000154B5242154C200003F026FA00281ED027
:102B1000002001F065FB00280BD10120002140427C
:102B2000032500F0E3FD6D42200003F0F5F92800D5
:102B300070BD002001F06CFB0028EED029003200AF
:102B4000002001F073FB051EEED1033DECE70325E9
:102B50006D42ECE740420F00FFFFFF7F2C22002078
:102B6000F8B5DE46574680B505000C00FEF7E0FCE0
:102B70000023354A12184B41002B02DA0122334B55
:102B80005242334908008A4603F0E6F9002803D18F
:102B90000CBC92469B46F8BD002001F021FB0028AA
:102BA00036D00026002C38DD2A4B9B4615E0002845
:102BB00048D101200021404200F098FD002001F0A2
:102BC000B5FB002001F00CFB002826D0002001F00E
:102BD000E9FB002825D0B4421FDD0020A71B01F02F
:102BE000E1FB8742E3DC3A00A919002001F056FB23
:102BF000070001200021404200F078FD002001F094
:102C000095FBFEF795FC134BF61918605960E2E747
:102C1000002000210F4B18605960504603F07CF9EA
:102C2000B6E7FEF785FC5B460F001A685B6800217B
:102C30008446094812184B419F42EED8CBD19445A7
:102C4000C9D9EAE70700CEE740420F00FFFFFF7F48
:102C50002C2200206018002020A1070010B5234C72
:102C600084B00021200003F067F9002835D1204B03
:102C70001A68002A16D0EFF3108172B61068002887
:102C8000FCD0BFF35F8F01241A48596002781B689B
:102C9000D2B20470BFF35F8F0020186081F31088F8
:102CA000002A01D004B010BDFEF70AF90400FEF7B7
:102CB0003FFCFA220023920012184B41002B02DA4B
:102CC00001220D4B524201210291002101910B4939
:102CD00020000091FEF7F8F8E4E7012000214042CF
:102CE00000F004FD200003F017F9DBE72C220020A0
:102CF000042200205C220020FFFFFF7F812A0010B9
:102D0000054B10B51868002804D0044B0022196840
:102D100000F03AFC10BDC0464C1D0020501D0020A4
:102D2000D02310B51B0684B01C68FEF7C9F8FEF767
:102D300095F9844202D0002004B010BD254B1B78C9
:102D400001F040FD2448FDF7A9FE0120FDF78AFEB1
:102D5000FF23224C224920701840FDF71BFC2078ED
:102D60000121FDF7DFFB0520FDF7F6FB002810D061
:102D70001C4900220520FDF737FCFDF7B7FB0100D9
:102D80001948FDF7B9FE19480121FFF7DDFD0120C3
:102D9000D2E7FEF795F80400FEF7CAFBFA220023FB
:102DA000920012184B41002B02DA0122104B5242C2
:102DB00001210291002101910E4920000091FEF7AE
:102DC00083F80822040000210748FFF703FC002CC9
:102DD000B1DBD8E7D86200102C2200205B22002053
:102DE0005D2C0010712A001004220020C00E00206B
:102DF000FFFFFF7F812A00100048704780610010AC
:102E0000004870472C61001070B504001648037824
:102E1000002B1CD0002C06D1C1241448144BA40054
:102E20004380048070BD052C1CD8124BA400E558CB
:102E300000230E48821CE95CDCB200290BD0013370
:102E400011800232132BF6D1CA24A400E9E7112124
:102E500000F01AF8DEE7C023013464009B001C4335
:102E6000A4B2DEE70020DDE744220020C01D0020E0
:102E7000090400009461001010B5024800F0E4F865
:102E800010BDC0461C220020013910B5002900D118
:102E9000A5E06C4B1A78121114003034092A00DDB9
:102EA000A0E00470012900D199E00F221C78224093
:102EB00014003034092A00DD97E04470022900D163
:102EC0008DE05A78121114003034092A00DD8FE0A9
:102ED0008470032900D182E00F225C782240140024
:102EE0003034092A00DD86E0C470042977D09A784E
:102EF000121114003034092A00DD7FE00471052925
:102F00006DD00F229C78224014003034092A00DD55
:102F100077E04471062962D0DA7812111400303457
:102F2000092A00DD70E08471072958D00F22DC786F
:102F3000224014003034092A69DCC47108294ED0BB
:102F40001A79121114003034092A63DC0472092939
:102F500045D00F221C79224014003034092A5CDC51
:102F600044720A293BD05A79121114003034092ACC
:102F700056DC84720B2932D00F225C792240140077
:102F80003034092A4FDCC4720C2928D09A791211E6
:102F900014003034092A49DC04730D291FD00F2294
:102FA0009C79224014003034092A42DC44730E29F3
:102FB00015D0DA79121114003034092A3CDC8473FC
:102FC0000F290CD0DA790F2313401A003732092B5E
:102FD00001DC30331A00C273102900D01021002305
:102FE000435410BD373214005BE73732140064E7F6
:102FF000373214006CE73732140075E737321400AB
:103000007CE73732140084E7373214008BE737321D
:10301000140092E73732140098E7373214009FE724
:1030200037321400A5E737321400ACE7373214000A
:10303000B2E737321400B9E73732140084730F292E
:10304000C0D1CCE71C22002010B588B004000D22AE
:1030500000216846FFF7BEFA0D22002104A8FFF701
:10306000B9FA4B236A4604A9137068460D2202F090
:103070004BFF1521082269442000FFF7B1FA08B080
:1030800010BDC04610B501210520FDF74BFA10BD5B
:1030900010B5034800220021203000F065F910BD72
:1030A000F81D00208022024B5202DA647047C046AD
:1030B00000201150F0B5C64600B5804600F02EF94C
:1030C0000C231B4DFF22AB671A490520FDF78CFA34
:1030D000194C402200212000FFF77CFA40270023F2
:1030E000012680202221154A66702783A260136082
:1030F0006054013963540231635418316354104AE7
:1031000010496360E2602787A1620B606362E2623C
:1031100002F03AFF80239B052E64EB6490230A4A59
:103120004046EA50FFF7BEFF04BC9046F0BDC046E3
:10313000000011500D050020F81D002084001050E3
:10314000000110508000105010D001000B785B0679
:1031500002D14B78052B00D070478A78014B1A605A
:10316000FAE7C04600001150F0B54746CE4680B59C
:103170004B790A7983B01B0288781343CA78694671
:103180009207920FCA7194467F22CF7941B2884646
:103190000240CE0F5500364CA919490161188870BC
:1031A0004046C043C00F48700020C870814660464A
:1031B0005B055B0D0B83C876414600293CDB2D483F
:1031C000D1008446900161448446A44460468160F5
:1031D00048460860002A3CD02749D2008C46624409
:1031E000A919490161184A603F223F339343022FD6
:1031F0003BD02248AA1901685201A218D160204A86
:10320000CB180360514053408022884652019342BC
:1032100001D9FFF791F880234246AD191B066D01D5
:103220001343BF0664191F4363681F60012003B086
:103230000CBC90469946F0BD1248D10084469001DE
:1032400061448446A4446046816248460860002A7E
:1032500006D100237601A41963600B4BE360E5E718
:103260000749D2008C466244BAE75B00C1E7C0461A
:10327000F81D00208400105004001050002200208F
:1032800000001050800010500001105010B502F0E6
:103290007BFE10BD7F2070B5150008404000C909B5
:1032A000044C40184001201829001A0000F05CF876
:1032B000012070BDF81D00207F2010B5084049B2E4
:1032C000002804D1CB43084ADB0F013393668022E8
:1032D000C90F40004018054940010818120100219B
:1032E00002F062FE10BDC04600201150F81D002003
:1032F0007F2310B50B400BD0C90958004018054B6F
:103300004001181800230022C370034902F04CFE4C
:1033100010BDC046F81D0020FFF7FFFF80220D4BB7
:10332000520410B51A600C4B0C491A6010008B68DF
:103330009843FBD10A4C9C2200212000FFF74AF958
:103340008022002152010748FFF744F909236367EF
:1033500010BDC04600E0004000F0004000C000404A
:10336000000011500000105070B5837E04000D0065
:103370001600002B1DD100232100E3820133A68219
:10338000A3762561A01C1B3102F006FE002804D0A4
:1033900080219023084A8902D150200002F00CFEBF
:1033A000002802D00123237770BD200002F0DCFD4D
:1033B000FAE702F0E1FDDEE700201150024B5878F9
:1033C000431E9841C0B27047E01B0020024B1878A2
:1033D0004007C00F7047C046E01B0020034B187821
:1033E000FF38431E9841C0B27047C046FC0E002013
:1033F000F8B54746CE4680B52A4E070033780120FF
:10340000FF2B03D00CBC90469946F8BD53220021F7
:103410002548FFF7DFF8254C2000FDF73FFB244B44
:103420001C60244C20001430FDF756FB200001F0F6
:1034300075FC214B1C60214B002B20D0204D00241B
:103440002800FFF7EBFA1F4B1F4A99461860904679
:103450002B780FE04A461268630094461B19DB0084
:103460006344002B1BD01B68984701342B78E4B2CF
:10347000A3420BDBA342EDD811D14346F4E700F0A1
:103480009FFF0F4B00201B78002BBBD138003770FB
:10349000FFF710FE3800FFF7F5FD0120B2E700202E
:1034A000B0E7C046FC0E0020E01B0020981B002067
:1034B000341C0020E00E0020381C00201D2A0010C3
:1034C00055220020B8180020C1430010F8B5DE4690
:1034D00057464E4645460C00E0B5002A4DD0497887
:1034E000052909D1E678B607B60FB34204D17F2388
:1034F000A1780B400F2B06D900203CBC9046994682
:10350000A246AB46F8BD1E4B571E99461B780025B8
:103510009A461C4B9B467F23984602E04B461B78FD
:103520009A465B462000997801F094F90028E3D090
:1035300021005046FFF718FE0028DDD0A3785AB2CC
:10354000002A14DB0A9A13702378E418BD4214D0C1
:103550006378052BD0D1E3789B079B0FB342CBD187
:103560004246A378013513400F2BC5D8D6E70B9AF6
:1035700013702378E418BD42EAD10120BDE7C046AC
:10358000FC0E0020E01B002070B584B001AC0600EA
:103590000D000C2200212000FFF71CF808236370A7
:1035A0000D4BA5601D6866606A69EFF3108372B603
:1035B00011680029FCD0BFF35F8FAB6121002800A8
:1035C00001F0CCFA6A69AB69BFF35F8F002111602B
:1035D00083F3108804B070BD381C00207F2370B5C1
:1035E0008A780C0013400F2B01D9002070BD074BC7
:1035F00020001D78064B997801F02CF90028F4D0B2
:1036000021002800FFF7B0FDF0E7C046FC0E0020C7
:10361000E01B00207F20074B10B508404000C9097F
:103620001A684018044B33301818110001F0D4F810
:1036300010BDC046341C0020E01B00207F20074B3B
:1036400010B508404000C9091A684018044B3330CF
:103650001818110001F0E4F810BDC046341C002019
:10366000E01B002070B57F240C4060000E4CCD099B
:10367000241864193034E5780020ED0700D570BDBA
:103680000126E578094835430078E570FFF702FE2A
:103690000028F4D10122E3789343E370E378033206
:1036A0009343E370EBE7C046E01B0020FC0E0020D4
:1036B00010B57F240C4063000A4CCA09E418A41812
:1036C0003034E3789B070BD5074B1878FFF710FED3
:1036D0000222E3789343E370E378013A9343E37083
:1036E00010BDC046E01B0020FC0E0020F0B5DE46F9
:1036F00057464E464546E0B58BB001F069F80028C4
:1037000000D156E1C64BC74E9B4607AD346862698F
:10371000EFF3108172B61368002BFCD0BFF35F8FFC
:10372000A1612000290001F055F96269A369BFF386
:103730005F8F0021116083F31088002800D138E1E9
:103740006B78082BE2D8B84A9B00D3589F466B6829
:10375000002BDBD0A8689847D8E77F232979B34CA2
:103760000B405800CA092418A4182200012730323F
:10377000D078B843D070D0780337B843D070002BDE
:1037800000D13FE1AA4AE37C002A00D126E1A94A00
:103790001278934200D31FE15A00D318A64ADB00E7
:1037A0001268D318002B00D103E11C6919E1012232
:1037B0009E4C012123780420134323703323E25CC1
:1037C0008A43E254E25C8243E2540133E25C8A437E
:1037D000E254E25C8243E2542B7800209A4600F0E7
:1037E0006FFC2B795A06920F032A00D101E1602267
:1037F0001A40402A00D1F9E0DB06DB0E012B00D194
:1038000033E1002B00D146E1022B00D0F1E07F2311
:103810002889C1B20B400F2B00D9EAE05B0040B20F
:10382000E718C00F9846824B3F18FF7C002B00D151
:1038300062E1804B1B789F4200D35BE17B009C469A
:103840007D4B67441B68FF009C466744002A00D1FB
:1038500058E1002F00D1CCE0F86800F031FCFB68A3
:1038600008AA012150469847FBE0704C2378DB07FB
:1038700000D44BE7714B002B00D147E700E000BFBD
:1038800044E76A4C2378DB0700D43FE76C4B002BFE
:1038900000D13BE720780007C00F00E000BF35E70C
:1038A0002B78644F624A984600243B78002A00D166
:1038B000AEE0614A9246634A91463A0047469046D6
:1038C00011E052461268630094461B19DB00634402
:1038D000002B25D05B6838009847434601341B789D
:1038E000E4B2A3420BDBA342EBD819D14B4638001C
:1038F0009847434601341B78E4B2A342F3DA4B4CB9
:10390000532200212000FEF765FE1022FF21E01C5B
:10391000FEF760FE200020221330FF21FEF75AFE42
:1039200000F0C4FB484B002B00D1EFE600E000BFE5
:10393000ECE62B783F4F3E4A984600243B78002A1D
:103940003ED03D4A92463F4A91463A00474690460D
:1039500011E052461268630094461B19DB00634471
:10396000002B33D05B6838009847434601341B78FE
:10397000E4B2A3420BDBA342EBD827D14B4638007D
:103980009847434601341B78E4B2A342F3DA274C4C
:10399000532200212000FEF71DFEE01C1022FF2113
:1039A000FEF718FE20002022FF211330FEF712FE42
:1039B0000DE00BB03CBC90469946A246AB46F0BD2C
:1039C000404600F03BFD3B78002BE0D0174C00F068
:1039D0006DFB2B79A37099E69B1ADBB2002BE8D123
:1039E0001A4C6A792878AB68A0478FE618480028F7
:1039F00030D128780021FFF75FFC28788021FFF77D
:103A00005BFC83E66A792878AB6800F06DFB7DE6A5
:103A1000404600F013FD3B78002B00D080E76EE7B6
:103A2000A0620010381C002014620010E01B00206F
:103A30001D2A001055220020B818002000000000A8
:103A4000000000003D44001000000000314600105E
:103A50000000000000F034FB08AA0121504600E0FD
:103A600000BF002800D051E6C3E7287A0F28C0D84D
:103A7000B84A2018C378002A1BD0B74A127893425C
:103A800015D2B64A5C00E3181468DB00E418002C79
:103A9000AFD0E06811E0202A00D11DE1002AA8D1B2
:103AA0006B79092BA5D8AE4A9B00D3589F469B1A29
:103AB000DBB2002B9DD1AB48AB4C00F001FBE368BF
:103AC00008AA012150469847002800D01EE660242D
:103AD0002B791C408DD16B790A3B012B89D800F0E2
:103AE000EFFA6B790A2B00D12AE108A9504600F0C1
:103AF0006FFA0BE6FF1AFFB2002F3FD00027002A13
:103B000000D076E76A79012A05D0002A00D102E1C7
:103B1000032A00D06DE7EB88002B1BD1012A00D1CE
:103B200099E14346E31818183023984680444346E9
:103B3000DB789B070ED48D4B1878FFF7BDFB43460F
:103B40000222DB7813434246D370D3780122134319
:103B50004246D370002F00D1D8E5F86800F0B0FAE3
:103B6000FB6808AA012150469847002000F0A8FAF7
:103B70003423E35CDB0700D5C8E5B6E7002A00D0B4
:103B8000DBE0794FBEE7AB7901931A0063789A4284
:103B900007D06378002B00D061E1019B002B00D09F
:103BA000EEE06B461B7908A95046637000F010FAEE
:103BB000ACE5637806AA0232137008A901235046C7
:103BC00000F01EFAA2E5237806AA99061B07DB0F70
:103BD000C90F5B0002320B43138008A90223504631
:103BE00000F00EFA92E5E888030AC0B20F2B00D964
:103BF000FFE65F499A008A58974608A800F066FADF
:103C0000A9795046FFF744FA022223781343237020
:103C10007CE5EB88012B00D0EBE60822237808A98D
:103C200013435046237000F0D3F96FE5EB88012B66
:103C300000D0DEE60822237808A99343504623707B
:103C400000F0C6F962E54B4B002B00D1D1E600E055
:103C500000BF021E00D1CCE6C37881781B020B4363
:103C6000504608A900F0CCF9002800D04EE5C0E687
:103C7000414B002B00D1BCE600E000BF021E00D18A
:103C8000B7E6137808A9504600F0BAF9E9E62989A1
:103C9000FFF7BAF8021EF4D1ABE6022B00D185E1A2
:103CA000364B002B00D1A4E600E000BF002800D175
:103CB0009FE6C37882781B02134308A9020050468E
:103CC00000F09EF9CDE6FFF797F81223020008A94D
:103CD000504600F095F9C4E62B7A0F2B00D988E600
:103CE0001C4AE418E378002A21D01B4A1278934238
:103CF0001BD21A4A5C00E3181468DB00E418002C9D
:103D000000D176E6E06800F0DBF9E36808AA01215B
:103D100050469847A5E62300434418183030C3782E
:103D200006AA9B07DB0F023256E79B1ADBB2002B79
:103D300000D05EE60B480C4CE5E70A480A4F8CE5DC
:103D400006AB9A1C08A901235046147000F058F9DC
:103D5000DCE4C0461D2A001055220020B8180020BF
:103D60003862001051450010A0620010FC0E0020C7
:103D70006062001000000000000000000000000071
:103D8000581EC0B2FFF73CF8002800D131E6437856
:103D9000022B00D02DE60122C17991464B09134038
:103DA0001F01237889099846102342469A4313003D
:103DB0004A460A4020213B4352018B431343237060
:103DC00009239946C37882781B021343C3188144A0
:103DD0000493994500D3C1E04F46D146A246012243
:103DE0007B7800920B2B00D1BFE0042B00D000E6C3
:103DF000049B704ADB1B9BB202936F4B1B78002A1B
:103E000000D1C0E0002200240392B8461CE06B4BB6
:103E100067001B683F199C46FF0067440593002F0D
:103E200000D1E6E5BB68029A414648469847082813
:103E300002D9029B834257D25F4B01341B78E4B214
:103E40000394A34200DAD4E5A342E0D800D0D0E541
:103E50005B4B5F46E7E75046FFF72AFC7AE65046A1
:103E6000FFF714FAA378544F524A009300213B788D
:103E7000002A32D0514A914622000C00904610E0B0
:103E80004A461268630094461B19DB006344002B0A
:103E900021D05B685046984701343B78E4B2A34296
:103EA00004DBA342ECD816D1464BF3E74446532239
:103EB00000212000FEF78EFB1022FF21E01CFEF700
:103EC00089FB200020221330FF21FEF783FB6B4685
:103ED0001B78A37061E64446F9E7504600F0AEFA5D
:103EE0003B78002BF3D1E2E74346B8461F0002902F
:103EF000009B012B3FD0002B1AD05246B9785218A4
:103F0000D2780B00FF2A00D073E500228846504685
:103F1000C318DC700132009BD2B29A4207D24346EA
:103F2000D318DBB2C118C978FF29F1D061E5824608
:103F300050462300029A1330390000F0C3FC1E4B98
:103F4000039A1B78934200DA53E5029B9C46049B3C
:103F50006744BB4200D942E75446CA461A4B002B7D
:103F600000D11EE600E000BF1BE6FB7800933B7823
:103F7000FF187B7839E74246114B92689A42BCD1D0
:103F800002230093B9E7029C39002200484600F062
:103F90006BFA0290082800D82BE5844200D228E56D
:103FA0000A4B0024984600230393A1E7FEF728FF5D
:103FB0007CE6C0461D2A001055220020B8180020BB
:103FC000694400103D44001000000000A062001091
:103FD00070B50A4C0600082220000D00FEF700FB19
:103FE00000230021A360E381A38169563000C94307
:103FF000C90FC9010022FFF735FB70BD841B0020EB
:10400000F0B5C6469046274C082200B506002000B1
:104010000D001F00FEF7E4FA4346A3600023E3818E
:10402000EB79AA791B0213431A1CBB4200D93A1C34
:1040300097B2A281002B12D0002F1FD04346002B35
:104040002ED03B1C402F17D89FB223787F2B1ED831
:104050000021154A3B003000FFF704FB09E0002176
:1040600069560023C943C90FC90100223000FFF778
:10407000F9FA04BC9046F0BD4023E5E723787F2B96
:1040800002D800210022E5E780210022E2E7064C69
:104090003A0041462000FEF7A3FA80212200D9E72A
:1040A0000020E6E7841B0020A01B002010B514228E
:1040B00000210248FEF78EFA10BDC046841B002086
:1040C000014B18617047C046841B002010B5054C99
:1040D000010008222000FEF783FA0023A360E38199
:1040E000A38110BD841B002070B53A4C1D002378BD
:1040F0000600DA09C9098A4212D00020002D0ED12B
:10410000354B002B03D021003000FFF71FF8236947
:10411000002B2ED02200032130009847012070BDD3
:104120007F2B06D8A068002825D02A002B49FEF74F
:1041300057FAA268E38951195B19E2889BB2E381BF
:10414000A1609A4201D03F2D17D82369002B05D0DA
:104150002200022130009847002824D00021615617
:104160000023C943C90FC90100223000FFF77AFAC2
:10417000D5E70120D3E70020D1E7A289D31A1D1C7F
:104180009BB2402B00D940252378ADB27F2B14D8A9
:104190000021002D05D100222B003000FFF762FA2C
:1041A000BDE70E4AF8E700213000FFF785F8300040
:1041B0008021FFF781F80120B1E7002D01D1802196
:1041C000E9E7064C2A002000FEF70AFA80212200C7
:1041D000E2E7C046841B00204D310010A01B0020E8
:1041E00010B50400FFF7EAF8002801D1002010BD47
:1041F000FFF7ECF80028F9D1B220800044430348CF
:104200000019037901201840F1E7C046BC180020CE
:104210000300B2208000584310B5034B103018182B
:1042200000F0A8FB10BDC046BC180020F0B5B225B8
:10423000AD0045432C00C646174E1034341900B566
:1042400092B2200000F016FC0700200000F0AEFB48
:104250003F2803D8380004BC9046F0BD7319D978C4
:1042600000209846FFF7D6F90028F3D0200000F090
:104270009DFB3F2805D843460020D978FFF7DEF99B
:10428000E8E792239B00EA184346B218D978002049
:104290004023FFF7E7F9DDE7BC180020F0B5B225B1
:1042A000AD0045432C00C6461F4E2434341900B5DA
:1042B00092B2200000F098FC0700200000F05AFBAA
:1042C0003F2803D8380004BC9046F0BDFFF776F8CD
:1042D0000028F7D0FFF77AF80028F3D1200000F08B
:1042E00049FB0028EED07319997800209846FFF713
:1042F00091F90028E6D0A2239B009C4665447619DC
:1043000031004022200000F0B5FB43469978002898
:1043100005D0030032000020FFF7A4F9D2E7002007
:10432000FFF78CF9CEE7C046BC180020F8B50500B1
:10433000FFF744F8002801D10020F8BDFFF746F848
:104340000028F9D1B224A40065432E00144F24366E
:10435000BE19300000F00EFB0028EDD07C19A178CA
:104360000020FFF757F90028E6D0A2239B009C46C7
:1043700065447D1929003000402200F07BFBA178C4
:10438000061E08D003002A000020FFF76BF9002862
:10439000D2D03000D1E70020FFF750F9CCE7C0467B
:1043A000BC1800200300B2208000584310B5034B16
:1043B0002430181800F0FAFA10BDC046BC180020CE
:1043C000B222F0B51B4C83B0920000212000FEF712
:1043D00001F9FF236371184B80260025E380012734
:1043E0000823210020007600237327813200383112
:1043F0000095073B103000F07FFA21002000393192
:104400003200FF3100970123243000F075FA8E232B
:104410009B00E6183000FCF741FB90239B002662CE
:10442000E618E5613000FCF739FB2663656303B0ED
:10443000F0BDC046BC18002000C2FFFF10B5094CFB
:10444000052200212000FEF7C5F82000243410309A
:1044500000F064FC200000F061FC0121200000F06D
:104460007DFC10BDBC180020F0B5C64600B54B79E8
:1044700082B00700022B05D00024200002B004BC4B
:104480009046F0BD8B79022BF6D1304EB378002BDD
:10449000F2D18B78092433700D784D196B78242B69
:1044A0000BD1082A02D80FE0A2420DD32B78ED18C9
:1044B000E4186B78A4B2242BF6D0052B1BD0042B68
:1044C00002D16B790A2B24D035001035280000F07A
:1044D0006DFA3F28D1D9F1780020FFF79BF800282A
:1044E000CBD0280000F062FA3F2825D8F1780020D0
:1044F000FFF7A4F8C1E729003800FFF76FF800289C
:10450000BAD0AB7873702B78E418ED18A4B26B783E
:10451000D5E72B7829009846B31C0193F31C009330
:104520004144022302223800FEF7D0FF0028A3D026
:104530000E344444A4B2C7E792239B00F218F178EA
:1045400040230020FFF78EF897E7C046BC180020F4
:10455000F8B560231400127800271340202B01D0F7
:104560003800F8BD2E4A6379267915781B0233434B
:104570009D42F5D16378212B43D009D9222B24D039
:10458000232B14D1012945D0032912D00127E7E7B5
:10459000202B0CD1012936D00329F7D1214B002B38
:1045A000F4D0911D0020FEF73FFA0127D8E700273D
:1045B000D6E71D4B002BE9D0E178A3780902194317
:1045C000002000E000BF0127CAE7012922D003290B
:1045D000DCD10125A178E47824020C432900147170
:1045E0002432A143100000F0B9FB104B002BCDD0BA
:1045F000290062082A402140002000E000BF012776
:10460000AEE70129C2D1063207232100FFF7F8FCEB
:104610000127A5E72100FFF7DBFC0127A0E7C04643
:10462000BC180020292A0010000000000000000033
:10463000F0B546464F46D646C0B55E4D9846EB7837
:1046400082B081460E008B4200D176E0AB788B427F
:104650002CD00024200002B01CBC90469946A246F3
:10466000F0BD554B002B07D02800103000F096F914
:10467000002801D1FEF744FB2C001034200000F08C
:1046800095F93F280FD9E9780020FEF7C3FF0028ED
:1046900009D0200000F08AF93F2800D980E0E978AD
:1046A0000020FEF7CBFFAB789E4244D1434B002B5A
:1046B00002D0002000E000BFFEF780FE002817D1E6
:1046C0002800243000F056F9002834D14346002B4E
:1046D00031D09B062FD1A9784846FEF79BFF041ED8
:1046E00029D0A978002300224846FEF7BBFFB1E796
:1046F000FEF76CFE0028E3D12C002434200000F0EB
:1047000039F90028DCD0A9780020FEF783FF0028C3
:10471000D6D0A2239B00EE1831004022200000F0EA
:10472000A9F9A978002837D0030032000020FEF74D
:1047300099FF0028C4D001248CE743466A46D38001
:1047400092239B00EC1810239A46AA44D288210099
:10475000504600F049FA1A4B002B82D06B79FF2BA0
:1047600000D17EE74246002A00D17AE79227BF00B7
:104770004744EF1904E00134BC4200D171E76B7982
:1047800022789A42F7D1504600F008F90028F2D179
:10479000697900E000BFEEE70020FEF74FFF8FE7EA
:1047A00092239B00EA18E97840230020FEF75AFF85
:1047B000AB7879E7BC180020012D00100000000044
:1047C0000000000010B50020FEF712FE10BDC0462C
:1047D00010B5FEF703FE10BD037870B5DB070500CA
:1047E0000E00DB0F0020002B03D12A78180053079E
:1047F00000D570BD01213000494201F0A5FB2B78A6
:104800000024DB0707D42B785B0704D4042201249F
:104810002B7813432B70300001F07EFB2000E8E77B
:1048200070B50D00012104004942280001F08CFB05
:10483000237800265B0704D4280001F06DFB3000CC
:1048400070BD2378DB07F7D4042223780136934325
:104850002370F1E7437902791B021343C2785B05A9
:1048600092075B0D920F022A16D00DD80020012A64
:1048700009D102394A425141104A0020944661440C
:1048800099424041C0B27047022914D04022002012
:104890009A424041C0B2F6E7022905D000204022EA
:1048A0009A424041C0B2EEE7054A944663445842FA
:1048B0005841C0B2E7E78022D200E8E7FF030000DA
:1048C00000FEFFFF8A1870B57F26914204D311E0E5
:1048D0000C7809198A420DD94C78052CF8D134008E
:1048E0008D782C4064000419ED0963550C78091982
:1048F0008A42F1D870BDC046F0B5C64600B51D006D
:1049000006AB1E7880230400884617001B02002097
:104910009A422AD8E068002803D00121494201F0D8
:1049200013FB2069002803D00121494201F00CFB50
:1049300043462360E3886D04DB0B6D0CDB032B43E4
:10494000E3805B04F6015B0E3343E3710023E06810
:104950006381A7802381002801D001F0DDFA20695E
:10496000002805D001F0D8FA012004BC9046F0BD23
:104970000120FAE7038942899BB292B2818893426F
:1049800009D24800821A9B189BB2081C994200D990
:10499000181C80B270479B1A9BB2F6E703894089C6
:1049A000181A43425841C0B27047C0460389428931
:1049B0009BB292B28188934207D39B1A9BB200208C
:1049C000994201D9CB1A98B270474800821A9B18B5
:1049D0009BB2F4E770B5040000690D00002803D015
:1049E0000121494201F0B0FA2089618980B289B27F
:1049F000A388884234D3421A92B2002A29D0934223
:104A000008D2984231D3C11A89B261818B4203D84E
:104A1000C91A89B28B42FBD92368E2889C465204AA
:104A2000520C514328006144FDF7DAFD6189A388E7
:104A300089B24A1C92B2012591420DD95B00D21A6B
:104A400092B220696281002801D001F065FA280045
:104A500070BD0025628992B25B009A42F1DBEEE7FD
:104A60005A00521A821892B2C7E7C01881B2618107
:104A7000CCE7C046F8B54746CE460500006980B58C
:104A800090460F00002803D00121494201F05CFA52
:104A90002E896989B6B289B2AB888E4247D3741A1F
:104AA000A4B2002C49D0A34205D29E4253D2F6189C
:104AB000B1B21C0069814246A0454AD894B28B42EB
:104AC00003D8C91A89B28B42FBD95B1A9BB29846AC
:104AD0002B68EE889C467604760C7143614444450D
:104AE00031D94046704383B21A0038009946FDF729
:104AF00077FD43463800E21A7243484492B229686F
:104B0000FDF76EFD6989AB8889B20A1992B2580027
:104B1000914214D9121A92B228696A81002801D0F0
:104B200001F0FAF920000CBC90469946F8BD5C00F3
:104B3000641A3419A4B2002CB5D16A8992B2580013
:104B40008242E9DBE6E7320038006243FDF748FDC8
:104B5000D8E7221CB2E7F11A89B2AAE7F8B5040037
:104B6000C0680E00002803D00121494201F0ECF991
:104B700025892289618992B289B2ADB2A3888A421D
:104B800029D3521A92B2934209D8E779FF0906D184
:104B9000E068002801D001F0BFF93800F8BD280016
:104BA0009D4203D3C01A80B29842FBD22368E288A8
:104BB0009C465204520C504331006044FDF710FDF6
:104BC000A2886B1C9BB252009D4209D99B1A9BB2D2
:104BD00023810127DCE75800411A521892B2D2E72C
:104BE0009342F5DBF2E7C046F0B54646D6464F465F
:104BF0000500C0B58846141E05D120001CBC904697
:104C00009946A246F0BDC068002803D00121494260
:104C100001F09AF92E89EB796A89B6B292B2DB0972
:104C200034D0AB889C4243D3EF88E41A7F047F0CD6
:104C3000674316001C004744002C21D030009E42E0
:104C400003D3C01A80B29842FBD2EA881B1A9BB2E7
:104C500052049846530C584399462B689C4660442E
:104C6000A0453AD34A4639006243FDF7B9FCAA8809
:104C7000A3199BB25200B34217D3934215DA2B818A
:104C8000E8680028B9D001F047F9B6E7AB8896424A
:104C900039D3B21A92B2934233D99A1A111C92B2F2
:104CA000A24239D88CB24746C6E79B1A9BB2E6E7C8
:104CB00096422DD25800811A711889B209194746B7
:104CC0008142BBDBD618361BB6B2B24201D8B04225
:104CD000B4DC361AB6B24746B0E7434649465943B4
:104CE0008BB21A0039009A46FDF77AFC4346E21A65
:104CF0004B4639005A43514492B22868FDF770FC84
:104D0000B5E70024BCE759008A1AB21892B2C2E78C
:104D1000B11A89B25800D1E7211CC3E710B50400CD
:104D2000C068002803D00121494201F00DF9206933
:104D3000002803D00121494201F006F90023E06870
:104D400063812381002801D001F0E6F82069002862
:104D500001D001F0E1F8012010BDC04670B504009B
:104D6000C0680D00002803D00121494201F0ECF891
:104D70002069002803D00121494201F0E5F87F2194
:104D8000E379ED011940E0682943E171002801D081
:104D900001F0C2F82069002801D001F0BDF801201F
:104DA00070BDC046F0B557464546DE464E46E0B5B6
:104DB0000D000B3583B00700162D00D89FE00723A8
:104DC0009D4300D5C4E0A94200D9C1E000F096FAA5
:104DD000F823FF339D4200D889E2680A00D1BBE086
:104DE000042800D964E138239846A8098044393062
:104DF000C100C94E71180839CC68A14219D00323EB
:104E000062689A431300521B0F2A00DDAAE0002AB1
:104E100000DB88E003239C4608E062466368934316
:104E20005A1B0F2A00DD9DE0002A7CDAE468A142CB
:104E3000F3D1320034690832944200D18BE103236C
:104E4000616899438946491B0F2900DD70E1726151
:104E50003261002900DB87E0B04A4B46914500D91A
:104E600032E1DB08FF3A9910FF3A8A40DB007168B3
:104E70009B190A4399687260E360A1609C6013000B
:104E8000CC6001218210914099426FD80B4205D12C
:104E900003229043490004300B42FBD00323984681
:104EA000C3009946B144CC4682466346DC68A445BB
:104EB00007D152E1002A00DB61E1E468A44500D19A
:104EC0004BE14246636893435A1B0F2AF2DD0120EF
:104ED0008046611905436560A068E5680836C560CD
:104EE000A8604046F160B16010434860CE608E60BB
:104EF0003800E25000F004FA2000083021E01029C8
:104F000026D8380000F0FAF9102518230220824E26
:104F1000F3181A005C68083A944200D129E103238F
:104F200062689A431300E268A168CA609160012236
:104F3000E318596838000A435A6000F0E1F920008C
:104F4000083003B03CBC90469946A246AB46F0BD43
:104F50000C2300203B60F4E780213F2340208900A0
:104F6000984646E7404664E74B46E0E70323B468CB
:104F700062689A439046AA4203D3531B0F2B00DD6D
:104F800088E023004344664A0193664B93469A4661
:104F900092681B68EB18013200D161E1624A9446C5
:104FA00063441B0B1B0300930099380000F0AAF91F
:104FB00003008146013362D0019B834200D9F9E0AE
:104FC00053465B68009A9C46534662445A60019B74
:104FD0001100834200D14FE15B469B68013300D151
:104FE00066E14B46019A9B1A5918534659600723AC
:104FF0004A46134000D11EE1082189464B49D21A86
:105000009144CB1A009A38004A441105090D5B1AE5
:1050100019009B4600F076F9431C00D13CE14B4659
:10502000C01A01235844184353465B685B44190077
:10503000534659604B46B3605860B44213D0434660
:105040000F2B00D8E2E04346072260680C3B9343F5
:10505000063A024005201A436260E21850609060F0
:105060000F2B00D91CE15346DB6A994201D9534604
:10507000D96253461B6B994201D9534619630323E6
:10508000B46862689A43531B954200D9C1E00F2B64
:1050900000DCBEE001222900134311436519616061
:1050A0003800B5606B6000F02BF92000083048E74D
:1050B000142873D9542800D9B2E06E239846280BDF
:1050C00080446F30C10094E65A0A042A6CD9142A2D
:1050D00000D9C8E011005C325B31D20008235B428A
:1050E0009C46B218944463469A68032398469445B4
:1050F00000D1A3E0434651689943894500D38DE030
:1051000092689445F6D16346DA6873686146E26056
:10511000A1609460CC60B4E630130020FF01000071
:1051200030170020841800200F1000000810000025
:10513000012360191D43656070613061C260826047
:105140001A004B460A4342603800E15000F0D8F89C
:1051500020000830F5E6736893E608239B46073B7A
:10516000DC449B46DA4443465246134200D09CE658
:1051700036E0DC680230A34200D15AE6CFE60122D5
:10518000E318596838000A435A60E368A268D3609C
:105190009A6000F0B5F820000830D2E65B2398460C
:1051A00080445C30C10024E69A091100393238315C
:1051B000D20093E7B44200D061E753465B68009A9F
:1051C0009C465346624411005A6005E708235B423F
:1051D0009C46E1444B469B680138994500D084E0E9
:1051E00043460342F2D173688B437360490099428E
:1051F00000D9BBE6002900D1B8E650460B4200D0EA
:105200004EE6490004300B42FBD049E601234A46F2
:105210005360380000F074F8002092E6944672E77C
:10522000AA235B00984211D8DD3B9846E80B8044E6
:105230007830C100DDE580235B01E3E68910023BA5
:105240008B4072681343736062465FE72A4B984253
:105250001CD87C239846A80C80447D30C100C8E54A
:1052600010330093A0E6542A26D84B461A0B11009F
:105270006F326E31D20031E71B0500D0ACE6012061
:10528000009BB268434403435360ECE6FE217E2357
:105290007F2089009846ACE5002301209B46C3E6A9
:1052A00021003800083100F07DFB53465968DAE6EA
:1052B0005B464A469A609AE6AA2149008A4206D885
:1052C0004B46DA0B110078327731D20006E70A49F3
:1052D0008A4206D84B469A0C11007D327C31D200AE
:1052E000FCE6FE227E219200F8E673687EE72B0042
:1052F000E80808330BE6C046540500007047C04676
:105300007047C046002370B5064C050008002360B6
:10531000FCF7DCFF431C00D070BD2368002BFBD0E2
:105320002B60F9E72025002010B5830725D00378EE
:10533000002B24D00300032102E01A78002A1AD09F
:1053400001330B42F9D119680E4A0F4C8A188A436F
:10535000224206D1043319680A4A8A188A43224233
:10536000F8D01A001B78002B03D0013211780029E5
:10537000FBD1101A10BD181AFCE70300E3E7002068
:10538000F8E7C046FFFEFEFE80808080F8B506008C
:105390000D001400002802D0836B002B4ED0A369AF
:1053A000A3600C23E05E81B20B073CD52369002B80
:1053B00039D0FF22EFB2154080229201114215D060
:1053C00022686169D31A8B421BDA0133A168013963
:1053D000A160511C2160177062699A421AD0A3899A
:1053E000DB0701D50A2D15D02800F8BD0243616EF8
:1053F000A281144A0A40626661692268D31A8B420C
:10540000E3DB2100300000F03DF9002808D12268DC
:105410000123DBE72100300000F034F90028E3D05D
:1054200001256D42E0E72100300000F019F8002866
:10543000F6D10C23E05E236981B2BAE700F03AFAB4
:10544000ADE7C046FFDFFFFF10B5044B0A001B6845
:1054500001001800FFF79AFF10BDC046000F0020A2
:10546000334B70B5050018680C00002802D0836B20
:10547000002B3CD00C23E25E93B219070DD52169B5
:10548000002915D0DA0721D50023A3606369002025
:105490005B42A361002921D070BDD9063FD55B07CF
:1054A00028D4216908231343A3819BB20029E9D1A1
:1054B000A0228020920080001A408242E2D0210087
:1054C000280000F0C5FBA3892169DBE700229B07C8
:1054D00000D46269A26000200029DDD10C22A35E05
:1054E0001A06D9D540221343A3810138D4E700F02E
:1054F000E1F9BFE7216B00290AD02300403399422C
:1055000004D0280000F04EFA0C23E25E002323634F
:1055100024239A430023216963602160C2E70923A1
:105520002B60402301201A43A2814042B4E7C046C9
:10553000000F0020F0B5C64600B50C23CA5E8046B9
:1055400093B20C00190740D480231B0113436268F7
:10555000A381002A00DC70E0A66A002E31D042460A
:105560004146156800229BB20A60DA0400D469E063
:10557000226D5B0706D56368D21A236B002B01D01E
:10558000E36BD21A0023E1694046B047431C3DD08B
:10559000A3893A4A13400022626022691BB2A381A8
:1055A0002260DB0447D44346216B1D60002908D0EC
:1055B00023004033994202D0404600F0F3F9002323
:1055C0002363002004BC9046F0BD2669002EF8D06D
:1055D00022682660951B00229B0700D16269A260A9
:1055E000002D04DCEDE736182D1A002DE9DD2B0027
:1055F0003200E1694046676AB8470028F3DC402280
:105600000120A38940421343A381DBE74346196885
:105610001D29F4D81A4B0122CB409A43EFD1A3891C
:10562000164E6260334022691BB2A3812260DB0404
:10563000B9D50029B7D12065B5E7E26B002A00DDB6
:105640008AE7BEE700220123E1694046B047020035
:10565000431C02D0A389A66A8BE743461B68002B34
:10566000F8D01D2B01D0162B03D1434600201D601E
:10567000A8E74021A3890B43A381A3E7FFF7FFFF1E
:105680000100402070B504000D00002802D0836B9B
:10569000002B09D00C22AB5E0020002B03D0290088
:1056A0002000FFF747FF70BD00F004F9F2E7C046A5
:1056B00010B5011E04D0054B1868FFF7E3FF10BDBD
:1056C000034B0449186800F06DFAF8E7000F00205A
:1056D000B8620010855600100020704710B50249CE
:1056E00000F060FA10BDC046C55D0010F8B5DE469A
:1056F00057464E464546344BE0B5C363B8230024B5
:1057000003229B00C45004334568C2500833C218BA
:10571000043BC2500600042328002C606C60AC607F
:10572000AB816C66EC812C616C61AC61082200215C
:105730005C30FCF74FFF254B254F9A462B62254BDB
:10574000EF6299466B62244BED61AB62B568984697
:1057500009232800AB81083B2C606C60AC606C6650
:10576000EB812C616C61AC61082200215C309B46AE
:10577000FCF730FF53462B624B466B624346EF62A9
:10578000AB62ED61F56812232800AB81103BEB8121
:105790002C606C60AC606C662C616C61AC61082242
:1057A00000215C30FCF716FF53462B624B466B62C0
:1057B0004346AB625B46EF62ED61B3633CBC90462F
:1057C0009946A246AB46F8BDDD560010D95C0010E4
:1057D0006D5D0010055D0010415D001000207047F8
:1057E00070B568244A1E54430E0021007431FFF73F
:1057F000D9FA051E09D000232200036046600C3050
:10580000A86068320021FCF7E5FE280070BDC046A4
:10581000214B70B51D680600AB6B002B2DD0B82353
:105820009B009C4665446B68AC68013B03D51FE058
:105830006834013B1CD30C21625E002AF8D101239D
:10584000002520005B42E3810233A3816566256069
:10585000A560656025616561A561082200215C3055
:10586000FCF7B8FE256365636564A564200070BD20
:105870002868002805D00500D5E72800FFF736FF87
:10588000CDE704213000FFF7ABFF28600028F2D1FC
:105890000C2300243360E9E7B862001010B5034B15
:1058A0000349186800F07EF910BDC046B8620010C8
:1058B000C55D0010836B10B5002B01D1FFF716FFFB
:1058C00010BDC0467047C0467047C0467047C046CE
:1058D0007047C04610B5034B0349186800F040F903
:1058E00010BDC046000F0020DD57001010B5034B5F
:1058F0000349186800F034F910BDC046000F0020BD
:10590000D9560010F8B50C000600FFF7F7FC204F41
:10591000BB685D6803239D431E4B2C1B9C4664445F
:10592000240B1D4B013C24039C4207DD0021300069
:10593000FFF7E8FCBB685B19984204D03000FFF722
:10594000DFFC0020F8BD61423000FFF7DBFC431CA8
:105950000DD00122BB682D1B15435D600F4B30003D
:105960001A68141B1C60FFF7CBFC0120EAE700213A
:105970003000FFF7C7FCBA68831A0F2BDEDD084939
:105980000968401A0549086001210B435360D5E7B7
:1059900030130020EF0F0000FF0F000088180020D8
:1059A00038170020F8B504000D1E3CD0FFF7A6FC08
:1059B0002900083948680123050003269D434A1938
:1059C0009C46614F5368B343BE68B24256D06646A8
:1059D000536006420AD13E0008680836091A2D189D
:1059E0008868B04265D0CE68C660B0600120D61825
:1059F0007668064233D0554B284348604D519D424E
:105A000012D8ED08FF3BAA10FF3B93407A68ED00E7
:105A100013437B60EF19BB68CF608B60B960D960BE
:105A20002000FFF76DFCF8BD680A042850D8A809CB
:105A3000020039303832C00038180838836803262D
:105A400098424CD05A68B243954230D29B689842F3
:105A5000F8D1C368CB6088609960C160E0E7ED1859
:105A60003B4E9368B34242D0D2682843DA609360D9
:105A7000364B48604D519D42D6D8C2E76246EB187E
:105A8000024206D10A68891A88689B18CA68C260EF
:105A9000906001221A434A602E4AB960126893420C
:105AA000BED32D4B20001968FFF72CFFB8E7180074
:105AB000CFE76646D018406830423FD190685D1904
:105AC000D368C360986063462B434B604D51A7E792
:105AD000142814D802005C305B32C000ACE701230C
